:020000040000FA
:100000000C9462000C948A000C948A000C948A0070
:100010000C948A000C948A000C948A000C948A0038
:100020000C948A000C948A000C948A000C948A0028
:100030000C948A000C948A000C948A000C948A0018
:100040000C94CA040C948A000C9498040C947204C6
:100050000C948A000C948A000C948A000C948A00F8
:100060000C948A000C948A000000000024002700F1
:100070002A0000000000250028002B0000000000DE
:1000800023002600290004040404040404040202DA
:100090000202020203030303030301020408102007
:1000A0004080010204081020010204081020000012
:1000B0000008000201000003040700000000000027
:1000C0000000140511241FBECFEFD8E0DEBFCDBF66
:1000D00011E0A0E0B1E0E8E4FEE002C005900D927E
:1000E000A631B107D9F721E0A6E1B1E001C01D9228
:1000F000A83DB207E1F710E0C2E6D0E004C02197C6
:10010000FE010E940807C136D107C9F70E94790590
:100110000C9422070C940000AF92BF92CF92DF9212
:10012000EF92FF920F931F93CF93DF936C017B01AC
:100130008B01040F151FEB015E01AE18BF08C0173D
:10014000D10759F06991D601ED91FC910190F081B0
:10015000E02DC6010995892B79F7C501DF91CF9173
:100160001F910F91FF90EF90DF90CF90BF90AF90D5
:100170000895FC01538D448D252F30E0842F90E0AD
:10018000821B930B541710F0CF9608950197089592
:10019000FC01918D828D981761F0A28DAE0FBF2F5B
:1001A000B11D5D968C91928D9F5F9F73928F90E0B1
:1001B00008958FEF9FEF0895FC01918D828D981720
:1001C00031F0828DE80FF11D858D90E008958FEF5D
:1001D0009FEF0895FC01918D228D892F90E0805C26
:1001E0009F4F821B91098F739927089581E291E0B7
:1001F0000E94EA0021E0892B09F420E0822F089573
:1002000080E090E0892B29F00E94F60081110C9487
:1002100000000895FC01A48DA80FB92FB11DA35AA9
:10022000BF4F2C91848D90E001968F739927848F16
:10023000A689B7892C93A089B1898C918370806439
:100240008C93938D848D981306C00288F389E02DDA
:1002500080818F7D80830895EF92FF920F931F938B
:10026000CF93DF93EC0181E0888F9B8D8C8D981369
:100270001AC0E889F989808185FF15C09FB7F89475
:10028000EE89FF896083E889F989808183708064C1
:1002900080839FBF81E090E0DF91CF911F910F910C
:1002A000FF90EF900895F62E0B8D10E00F5F1F4F1B
:1002B0000F731127E02E8C8D8E110CC00FB607FC2A
:1002C000FACFE889F989808185FFF5CFCE010E94B8
:1002D0000A01F1CFEB8DEC0FFD2FF11DE35AFF4F1B
:1002E000F0829FB7F8940B8FEA89FB898081806246
:1002F000CFCFCF93DF93EC01888D8823B9F0AA8903
:10030000BB89E889F9898C9185FD03C0808186FDD0
:100310000DC00FB607FCF7CF8C9185FFF2CF80811F
:1003200085FFEDCFCE010E940A01E9CFDF91CF9189
:100330000895833081F028F4813099F08230A9F05B
:1003400008958730A9F08830C9F08430B1F48091E5
:1003500080008F7D03C0809180008F778093800024
:10036000089584B58F7784BD089584B58F7DFBCFC4
:100370008091B0008F778093B00008958091B00095
:100380008F7DF9CFCF93DF93282F30E0F901E2552D
:10039000FF4F8491F901E656FF4FD491F901EA57D6
:1003A000FF4FC491CC23A1F081110E949901EC2F41
:1003B000F0E0EE0FFF1FE458FF4FA591B491EC91D0
:1003C000ED2381E090E009F480E0DF91CF91089582
:1003D00080E090E0FACF1F93CF93DF93282F30E097
:1003E000F901E255FF4F8491F901E656FF4FD49190
:1003F000F901EA57FF4FC491CC23A9F0162F8111C0
:100400000E949901EC2FF0E0EE0FFF1FEE58FF4F16
:10041000A591B4918FB7F894EC91111108C0D095C3
:10042000DE23DC938FBFDF91CF911F910895DE2BE8
:10043000F8CFCF93DF93EC018091C6019091C70173
:10044000029749F4C130D10509F43BC06CF560E076
:10045000209709F437C08091C6019091C701049795
:1004600049F4C130D10509F45CC00CF037C02097C5
:1004700009F442C08091C6019091C701059709F027
:10048000E5C0CA30D10508F0E1C0FE01E65BFD4FD2
:100490000C940807A902B502C602DC02F702F902B1
:1004A00000030C031D032403C230D105A9F060E052
:1004B000C330D10581F68091CA010E94EB0160E052
:1004C00006C061E08091CA010E94EB0161E0809169
:1004D000CC010E94EB01BFCF61E0EDCFC230D1056E
:1004E00039F1C330D10509F0C5CF61E08091CA016F
:1004F0000E94EB0160E022C061E08091CA010E948D
:10050000EB0160E08091CC010E94EB0161E0809101
:10051000CE010E94EB0160E08091D0010E94EB01CE
:10052000A9CF60E08091CA010E94EB0161E0EACFAF
:1005300060E08091CA010E94EB0161E08091CC01F2
:100540000E94EB0160E08091CE010E94EB0161E02E
:10055000E3CF60E08091CA010E94EB0161E08091ED
:10056000CC010E94EB0161E00BC060E08091CA0108
:100570000E94EB0161E08091CC010E94EB0160E000
:100580008091CE010E94EB0160E010C060E080919C
:10059000CA010E94EB0161E08091CC010E94EB0155
:1005A00060E08091CE010E94EB0161E08091D0017A
:1005B0000E94EB0161E015C060E08091CA010E94D9
:1005C000EB0161E08091CC010E94EB0160E0809141
:1005D000CE010E94EB0161E08091D0010E94EB010D
:1005E00060E08091D201DF91CF910C94EB0161E04A
:1005F000E4CF61E08091CA010E94EB0160E0E2CFAC
:1006000061E08091CA010E94EB0160E08091CC0121
:100610000E94EB0161E0DBCF61E08091CA010E94A2
:10062000EB0160E08091CC010E94EB0161E08091E0
:10063000CE010E94EB0160E0CFCF61E08091CA0162
:100640000E94EB0160E08BCF60E0F8CFDF91CF91AB
:100650000895CF93DF9390E0FC01E656FF4F24917D
:100660008A579F4FFC0184918823D1F090E0880F36
:10067000991FFC01E859FF4FA591B491FC01EE5878
:10068000FF4FC591D491623071F49FB7F8943C91BB
:10069000822F809583238C93E8812E2B28839FBF04
:1006A000DF91CF9108958FB7F894EC912E2B2C9376
:1006B0008FBFF6CF3FB7F89480911B0190911C013A
:1006C000A0911D01B0911E0126B5A89B05C02F3F2A
:1006D00019F00196A11DB11D3FBFBA2FA92F982F68
:1006E0008827BC01CD01620F711D811D911D42E063
:1006F000660F771F881F991F4A95D1F708954F926B
:100700005F926F927F928F929F92AF92BF92EF9281
:10071000FF920F931F93CF93DF93EC0197FF04C0D9
:10072000CC27DD27C81BD90B181619060CF061C0A1
:1007300081E090E09093BF018093BE0104E010E05F
:100740008AE0E82EF12C209709F46FC00E945A032A
:100750008090D4019090D501A090D601B090D7019F
:100760002B013C01481859086A087B088090C00199
:100770009090C101A090C201B090C30148145904E7
:100780006A047B0400F36093D4017093D5018093D5
:10079000D6019093D7018091C8019091C901209111
:1007A000BE013091BF012130310559F5019690937A
:1007B000C9018093C8012091C4013091C5018217FD
:1007C000930721F41092C9011092C80121978091DA
:1007D000C8019091C9012091C6013091C701B701AC
:1007E0002530310509F0B8010E94B3060E941902B4
:1007F000AACF892B09F4A2CF1092BF011092BE019B
:100800009DCF892B41F48091C4019091C5019093B3
:10081000C9018093C8018091C8019091C9010197D5
:100820009093C9018093C801D1CFDF91CF911F91DF
:100830000F91FF90EF90BF90AF909F908F907F901F
:100840006F905F904F9008958F929F92AF92BF925A
:100850000F931F93CF93DF93CDB7DEB7A1970FB65A
:10086000F894DEBF0FBECDBF19A2423008F44AE0B3
:100870008E010F5D1F4F842E912CB12CA12CA50150
:1008800094010E94C706E62FB901CA01EA3044F577
:10089000E05DD801EE938D01232B242B252B79F7D6
:1008A00090E080E0109769F0FD0101900020E9F7E9
:1008B0003197AF014A1B5B0BBD0181E291E00E94C1
:1008C0008C00A1960FB6F894DEBF0FBECDBFDF91AE
:1008D000CF911F910F91BF90AF909F908F900895EF
:1008E000E95CD7CF1F920F920FB60F9211242F936E
:1008F0003F934F935F936F937F938F939F93AF93A8
:10090000BF93EF93FF9381E291E00E940A01FF9170
:10091000EF91BF91AF919F918F917F916F915F9177
:100920004F913F912F910F900FBE0F901F901895F0
:100930001F920F920FB60F9211242F938F939F93B4
:10094000EF93FF93E0913101F09132018081E091CA
:100950003701F091380182FD1BC0908180913A01EE
:100960008F5F8F7320913B01821741F0E0913A0134
:10097000F0E0EF5DFE4F958F80933A01FF91EF918C
:100980009F918F912F910F900FBE0F901F901895F0
:100990008081F4CF1F920F920FB60F9211242F93E4
:1009A0003F938F939F93AF93BF9380911701909143
:1009B0001801A0911901B0911A013091160123E09C
:1009C000230F2D3758F50196A11DB11D2093160157
:1009D0008093170190931801A0931901B0931A0105
:1009E00080911B0190911C01A0911D01B0911E01ED
:1009F0000196A11DB11D80931B0190931C01A09332
:100A00001D01B0931E01BF91AF919F918F913F91B6
:100A10002F910F900FBE0F901F90189526E8230F6F
:100A20000296A11DB11DD2CFCF93DF93E1E2F1E099
:100A30001382128288EE93E0A0E0B0E08483958375
:100A4000A683B78384E091E09183808385EC90E076
:100A50009587848784EC90E09787868780EC90E088
:100A6000918B808B81EC90E0938B828B82EC90E079
:100A7000958B848B86EC90E0978B868B118E128EF3
:100A8000138E148ECEEBD1E01B861A861982188243
:100A90001E8A1F8A188E198E80E290E09F838E83B3
:100AA00088E090E09D878C8789E090E09F878E8723
:100AB0008AE090E0998B888B8BE090E09B8B8A8B0F
:100AC00061E088E00E94290361E08E850E9429038D
:100AD00061E088890E94290361E08A890E942903D4
:100AE0001D8A1C8A84E090E099878887DF91CF91E6
:100AF0000895789484B5826084BD84B5816084BD96
:100B000085B5826085BD85B5816085BD80916E00AB
:100B1000816080936E0010928100809181008260DC
:100B20008093810080918100816080938100809119
:100B300080008160809380008091B1008460809308
:100B4000B1008091B00081608093B00080917A0004
:100B5000846080937A0080917A00826080937A002A
:100B600080917A00816080937A0080917A00806819
:100B700080937A001092C100E0913101F09132012E
:100B800082E08083E0912D01F0912E011082E091AE
:100B90002F01F09130018FEC808310923901E091A8
:100BA0003501F091360186E08083E0913301F091C8
:100BB0003401808180618083E0913301F0913401C0
:100BC000808188608083E0913301F09134018081DD
:100BD00080688083E0913301F091340180818F7DC2
:100BE000808362E087E00E94290362E086E00E9441
:100BF000290362E085E00E94290361E084E00E940D
:100C0000290360E084E00E94EB0194EF492E552413
:100C10005394612C712CC0E0D0E02091C40130913C
:100C2000C501032E000C440B550B60E077E883E907
:100C300093E00E94E906CA01B901A30192010E9452
:100C4000E9062093C0013093C1014093C201509343
:100C5000C30185E00E94C201892B69F50E945A03F5
:100C60004B015C0184E1C82ED12CE12CF12C0E94B7
:100C70005A03681979098A099B09683E73408105FE
:100C80009105A8F321E0C21AD108E108F10888EE25
:100C9000880E83E0981EA11CB11CC114D104E1048C
:100CA000F10429F780911F01909120010196909302
:100CB000200180931F0185E00E94C201892B21F54C
:100CC00061E084E00E94EB0160E085E00E94EB01BE
:100CD00086E00E94C201892B21F480E890E00E9406
:100CE0007F0387E00E94C201892B29F480E89FEFEF
:100CF0000E947F03E0CF60E084E00E94EB0161E0AE
:100D000085E00E94EB01D7CFC0901F01D090200159
:100D10000D2C000CEE08FF084AE0C701B601F7FEF3
:100D20000DC06DE281E291E00E942C0166277727D9
:100D3000CB016C197D098E099F094AE00E942404A9
:100D400042E050E062E171E081E291E00E948C00BB
:100D5000209709F462CF0E94F600882309F45DCF42
:100D60000E9400005ACF97FB072E16F4009407D07C
:100D700077FD09D00E940E0707FC05D03EF4909540
:100D800081959F4F0895709561957F4F0895A1E2D9
:100D90001A2EAA1BBB1BFD010DC0AA1FBB1FEE1FF5
:100DA000FF1FA217B307E407F50720F0A21BB30B40
:100DB000E40BF50B661F771F881F991F1A9469F7BC
:100DC00060957095809590959B01AC01BD01CF0118
:100DD0000895052E97FB1EF400940E94000757FD0E
:100DE00007D00E94C70607FC03D04EF40C940007FE
:100DF00050954095309521953F4F4F4F5F4F089547
:100E000090958095709561957F4F8F4F9F4F089576
:100E1000EE0FFF1F0590F491E02D0994AA1BBB1B58
:100E200051E107C0AA1FBB1FA617B70710F0A61BEA
:100E3000B70B881F991F5A95A9F780959095BC010B
:100E4000CD010895F894FFCF000000002C018C0024
:0E0E5000B9007901EA00C800DC000D0A0000BC
:107E0000112484B714BE81FFF0D085E080938100F7
:107E100082E08093C00088E18093C10086E0809377
:107E2000C20080E18093C4008EE0C9D0259A86E02C
:107E300020E33CEF91E0309385002093840096BBD3
:107E4000B09BFECF1D9AA8958150A9F7CC24DD24C4
:107E500088248394B5E0AB2EA1E19A2EF3E0BF2EE7
:107E6000A2D0813461F49FD0082FAFD0023811F036
:107E7000013811F484E001C083E08DD089C08234E0
:107E800011F484E103C0853419F485E0A6D080C0E4
:107E9000853579F488D0E82EFF2485D0082F10E0AE
:107EA000102F00270E291F29000F111F8ED06801E7
:107EB0006FC0863521F484E090D080E0DECF843638
:107EC00009F040C070D06FD0082F6DD080E0C81688
:107ED00080E7D80618F4F601B7BEE895C0E0D1E017
:107EE00062D089930C17E1F7F0E0CF16F0E7DF06D8
:107EF00018F0F601B7BEE89568D007B600FCFDCFD4
:107F0000A601A0E0B1E02C9130E011968C91119780
:107F100090E0982F8827822B932B1296FA010C0160
:107F200087BEE89511244E5F5F4FF1E0A038BF0790
:107F300051F7F601A7BEE89507B600FCFDCF97BE46
:107F4000E89526C08437B1F42ED02DD0F82E2BD052
:107F50003CD0F601EF2C8F010F5F1F4F84911BD097
:107F6000EA94F801C1F70894C11CD11CFA94CF0C13
:107F7000D11C0EC0853739F428D08EE10CD085E9AC
:107F80000AD08FE07ACF813511F488E018D01DD067
:107F900080E101D065CF982F8091C00085FFFCCF94
:107FA0009093C60008958091C00087FFFCCF809118
:107FB000C00084FD01C0A8958091C6000895E0E648
:107FC000F0E098E1908380830895EDDF803219F02E
:107FD00088E0F5DFFFCF84E1DECF1F93182FE3DFCA
:107FE0001150E9F7F2DF1F91089580E0E8DFEE27F6
:047FF000FF270994CA
:027FFE00040479
:00000001FF
